{
  "_format": "hh-sol-artifact-1",
  "contractName": "WavePortal",
  "sourceName": "contracts/WavePortal.sol",
  "abi": [
    {
      "inputs": [],
      "stateMutability": "nonpayable",
      "type": "constructor"
    },
    {
      "anonymous": false,
      "inputs": [
        {
          "indexed": true,
          "internalType": "address",
          "name": "waveSender",
          "type": "address"
        },
        {
          "indexed": false,
          "internalType": "uint256",
          "name": "timestamp",
          "type": "uint256"
        },
        {
          "indexed": false,
          "internalType": "string",
          "name": "message",
          "type": "string"
        }
      ],
      "name": "newWave",
      "type": "event"
    },
    {
      "inputs": [],
      "name": "getAllWoo",
      "outputs": [
        {
          "components": [
            {
              "internalType": "address",
              "name": "waver",
              "type": "address"
            },
            {
              "internalType": "string",
              "name": "message",
              "type": "string"
            },
            {
              "internalType": "uint256",
              "name": "timestamp",
              "type": "uint256"
            }
          ],
          "internalType": "struct WavePortal.Wave[]",
          "name": "",
          "type": "tuple[]"
        }
      ],
      "stateMutability": "view",
      "type": "function"
    },
    {
      "inputs": [],
      "name": "getTotalWoo",
      "outputs": [
        {
          "internalType": "uint256",
          "name": "",
          "type": "uint256"
        }
      ],
      "stateMutability": "view",
      "type": "function"
    },
    {
      "inputs": [
        {
          "internalType": "string",
          "name": "_message",
          "type": "string"
        }
      ],
      "name": "woo",
      "outputs": [],
      "stateMutability": "nonpayable",
      "type": "function"
    },
    {
      "inputs": [
        {
          "internalType": "address",
          "name": "target",
          "type": "address"
        }
      ],
      "name": "wooBack",
      "outputs": [],
      "stateMutability": "nonpayable",
      "type": "function"
    }
  ],
  "bytecode": "0x60806040523480156200001157600080fd5b506200005d6040518060400160405280601c81526020017f536f7520756d20636f6e747261746f20696e74656c6967656e746521000000008152506200006360201b620004341760201c565b620001f7565b62000103816040516024016200007a919062000170565b6040516020818303038152906040527f41304fac000000000000000000000000000000000000000000000000000000007bffffffffffffffffffffffffffffffffffffffffffffffffffffffff19166020820180517bffffffffffffffffffffffffffffffffffffffffffffffffffffffff83818316178352505050506200010660201b60201c565b50565b60008151905060006a636f6e736f6c652e6c6f679050602083016000808483855afa5050505050565b60006200013c8262000194565b6200014881856200019f565b93506200015a818560208601620001b0565b6200016581620001e6565b840191505092915050565b600060208201905081810360008301526200018c81846200012f565b905092915050565b600081519050919050565b600082825260208201905092915050565b60005b83811015620001d0578082015181840152602081019050620001b3565b83811115620001e0576000848401525b50505050565b6000601f19601f8301169050919050565b610dc380620002076000396000f3fe608060405234801561001057600080fd5b506004361061004c5760003560e01c80633aa98494146100515780633ba51f321461006d5780635c33b06b1461008b578063ec70b7fc146100a9575b600080fd5b61006b600480360381019061006691906107ed565b6100c5565b005b610075610121565b60405161008291906109de565b60405180910390f35b610093610272565b6040516100a09190610ac0565b60405180910390f35b6100c360048036038101906100be9190610816565b6102bd565b005b60016000808282546100d79190610bd2565b9250508190555061011e6040518060400160405280601f81526020017f25732066657a206f20576f6f204261636b2070726f2025732c2042616279210081525033836104cd565b50565b60606001805480602002602001604051908101604052809291908181526020016000905b8282101561026957838290600052602060002090600302016040518060600160405290816000820160009054906101000a900473ffffffffffffffffffffffffffffffffffffffff1673ffffffffffffffffffffffffffffffffffffffff1673ffffffffffffffffffffffffffffffffffffffff1681526020016001820180546101ce90610ca6565b80601f01602080910402602001604051908101604052809291908181526020018280546101fa90610ca6565b80156102475780601f1061021c57610100808354040283529160200191610247565b820191906000526020600020905b81548152906001019060200180831161022a57829003601f168201915b5050505050815260200160028201548152505081526020019060010190610145565b50505050905090565b60006102b56040518060400160405280601681526020017f256420576f6f206a6120666f72616d206461646f73210000000000000000000081525060005461056c565b600054905090565b60016000808282546102cf9190610bd2565b925050819055506103156040518060400160405280600d81526020017f25732066657a206f20576f6f210000000000000000000000000000000000000081525033610608565b600160405180606001604052803373ffffffffffffffffffffffffffffffffffffffff16815260200183815260200142815250908060018154018082558091505060019003906000526020600020906003020160009091909190915060008201518160000160006101000a81548173ffffffffffffffffffffffffffffffffffffffff021916908373ffffffffffffffffffffffffffffffffffffffff16021790555060208201518160010190805190602001906103d49291906106cd565b506040820151816002015550503373ffffffffffffffffffffffffffffffffffffffff167f827fc0b1433d32e3710239670a4c525416496a64d64f2374a5e4ea595c0738c64283604051610429929190610adb565b60405180910390a250565b6104ca816040516024016104489190610a00565b6040516020818303038152906040527f41304fac000000000000000000000000000000000000000000000000000000007bffffffffffffffffffffffffffffffffffffffffffffffffffffffff19166020820180517bffffffffffffffffffffffffffffffffffffffffffffffffffffffff83818316178352505050506106a4565b50565b6105678383836040516024016104e593929190610a52565b6040516020818303038152906040527ffcec75e0000000000000000000000000000000000000000000000000000000007bffffffffffffffffffffffffffffffffffffffffffffffffffffffff19166020820180517bffffffffffffffffffffffffffffffffffffffffffffffffffffffff83818316178352505050506106a4565b505050565b6106048282604051602401610582929190610a90565b6040516020818303038152906040527f9710a9d0000000000000000000000000000000000000000000000000000000007bffffffffffffffffffffffffffffffffffffffffffffffffffffffff19166020820180517bffffffffffffffffffffffffffffffffffffffffffffffffffffffff83818316178352505050506106a4565b5050565b6106a0828260405160240161061e929190610a22565b6040516020818303038152906040527f319af333000000000000000000000000000000000000000000000000000000007bffffffffffffffffffffffffffffffffffffffffffffffffffffffff19166020820180517bffffffffffffffffffffffffffffffffffffffffffffffffffffffff83818316178352505050506106a4565b5050565b60008151905060006a636f6e736f6c652e6c6f679050602083016000808483855afa5050505050565b8280546106d990610ca6565b90600052602060002090601f0160209004810192826106fb5760008555610742565b82601f1061071457805160ff1916838001178555610742565b82800160010185558215610742579182015b82811115610741578251825591602001919060010190610726565b5b50905061074f9190610753565b5090565b5b8082111561076c576000816000905550600101610754565b5090565b600061078361077e84610b3c565b610b0b565b90508281526020810184848401111561079b57600080fd5b6107a6848285610c64565b509392505050565b6000813590506107bd81610d76565b92915050565b600082601f8301126107d457600080fd5b81356107e4848260208601610770565b91505092915050565b6000602082840312156107ff57600080fd5b600061080d848285016107ae565b91505092915050565b60006020828403121561082857600080fd5b600082013567ffffffffffffffff81111561084257600080fd5b61084e848285016107c3565b91505092915050565b60006108638383610970565b905092915050565b61087481610c28565b82525050565b61088381610c28565b82525050565b600061089482610b7c565b61089e8185610b9f565b9350836020820285016108b085610b6c565b8060005b858110156108ec57848403895281516108cd8582610857565b94506108d883610b92565b925060208a019950506001810190506108b4565b50829750879550505050505092915050565b600061090982610b87565b6109138185610bb0565b9350610923818560208601610c73565b61092c81610d65565b840191505092915050565b600061094282610b87565b61094c8185610bc1565b935061095c818560208601610c73565b61096581610d65565b840191505092915050565b6000606083016000830151610988600086018261086b565b50602083015184820360208601526109a082826108fe565b91505060408301516109b560408601826109c0565b508091505092915050565b6109c981610c5a565b82525050565b6109d881610c5a565b82525050565b600060208201905081810360008301526109f88184610889565b905092915050565b60006020820190508181036000830152610a1a8184610937565b905092915050565b60006040820190508181036000830152610a3c8185610937565b9050610a4b602083018461087a565b9392505050565b60006060820190508181036000830152610a6c8186610937565b9050610a7b602083018561087a565b610a88604083018461087a565b949350505050565b60006040820190508181036000830152610aaa8185610937565b9050610ab960208301846109cf565b9392505050565b6000602082019050610ad560008301846109cf565b92915050565b6000604082019050610af060008301856109cf565b8181036020830152610b028184610937565b90509392505050565b6000604051905081810181811067ffffffffffffffff82111715610b3257610b31610d36565b5b8060405250919050565b600067ffffffffffffffff821115610b5757610b56610d36565b5b601f19601f8301169050602081019050919050565b6000819050602082019050919050565b600081519050919050565b600081519050919050565b6000602082019050919050565b600082825260208201905092915050565b600082825260208201905092915050565b600082825260208201905092915050565b6000610bdd82610c5a565b9150610be883610c5a565b9250827fffffffffffffffffffffffffffffffffffffffffffffffffffffffffffffffff03821115610c1d57610c1c610cd8565b5b828201905092915050565b6000610c3382610c3a565b9050919050565b600073ffffffffffffffffffffffffffffffffffffffff82169050919050565b6000819050919050565b82818337600083830152505050565b60005b83811015610c91578082015181840152602081019050610c76565b83811115610ca0576000848401525b50505050565b60006002820490506001821680610cbe57607f821691505b60208210811415610cd257610cd1610d07565b5b50919050565b7f4e487b7100000000000000000000000000000000000000000000000000000000600052601160045260246000fd5b7f4e487b7100000000000000000000000000000000000000000000000000000000600052602260045260246000fd5b7f4e487b7100000000000000000000000000000000000000000000000000000000600052604160045260246000fd5b6000601f19601f8301169050919050565b610d7f81610c28565b8114610d8a57600080fd5b5056fea2646970667358221220a740555f3a05487e55bf5437eac2d26772683fe103ee69bb0d25f484bb08b3e064736f6c63430008000033",
  "linkReferences": {},
  "deployedLinkReferences": {}
}