{
  "_format": "hh-sol-artifact-1",
  "contractName": "WavePortal",
  "sourceName": "contracts/WavePortal.sol",
  "abi": [
    {
      "inputs": [],
      "stateMutability": "payable",
      "type": "constructor"
    },
    {
      "anonymous": false,
      "inputs": [
        {
          "indexed": true,
          "internalType": "address",
          "name": "waveSender",
          "type": "address"
        },
        {
          "indexed": false,
          "internalType": "uint256",
          "name": "timestamp",
          "type": "uint256"
        },
        {
          "indexed": false,
          "internalType": "string",
          "name": "message",
          "type": "string"
        }
      ],
      "name": "newWave",
      "type": "event"
    },
    {
      "inputs": [],
      "name": "getAllWoo",
      "outputs": [
        {
          "components": [
            {
              "internalType": "address",
              "name": "waver",
              "type": "address"
            },
            {
              "internalType": "string",
              "name": "message",
              "type": "string"
            },
            {
              "internalType": "uint256",
              "name": "timestamp",
              "type": "uint256"
            }
          ],
          "internalType": "struct WavePortal.Wave[]",
          "name": "",
          "type": "tuple[]"
        }
      ],
      "stateMutability": "view",
      "type": "function"
    },
    {
      "inputs": [],
      "name": "getTotalWoo",
      "outputs": [
        {
          "internalType": "uint256",
          "name": "",
          "type": "uint256"
        }
      ],
      "stateMutability": "view",
      "type": "function"
    },
    {
      "inputs": [
        {
          "internalType": "string",
          "name": "_message",
          "type": "string"
        }
      ],
      "name": "woo",
      "outputs": [],
      "stateMutability": "nonpayable",
      "type": "function"
    },
    {
      "inputs": [
        {
          "internalType": "address",
          "name": "target",
          "type": "address"
        }
      ],
      "name": "wooBack",
      "outputs": [],
      "stateMutability": "nonpayable",
      "type": "function"
    }
  ],
  "bytecode": "0x60806040526200004f6040518060400160405280601c81526020017f536f7520756d20636f6e747261746f20696e74656c6967656e746521000000008152506200005560201b620005301760201c565b620001e9565b620000f5816040516024016200006c919062000162565b6040516020818303038152906040527f41304fac000000000000000000000000000000000000000000000000000000007bffffffffffffffffffffffffffffffffffffffffffffffffffffffff19166020820180517bffffffffffffffffffffffffffffffffffffffffffffffffffffffff8381831617835250505050620000f860201b60201c565b50565b60008151905060006a636f6e736f6c652e6c6f679050602083016000808483855afa5050505050565b60006200012e8262000186565b6200013a818562000191565b93506200014c818560208601620001a2565b6200015781620001d8565b840191505092915050565b600060208201905081810360008301526200017e818462000121565b905092915050565b600081519050919050565b600082825260208201905092915050565b60005b83811015620001c2578082015181840152602081019050620001a5565b83811115620001d2576000848401525b50505050565b6000601f19601f8301169050919050565b61100580620001f96000396000f3fe608060405234801561001057600080fd5b506004361061004c5760003560e01c80633aa98494146100515780633ba51f321461006d5780635c33b06b1461008b578063ec70b7fc146100a9575b600080fd5b61006b600480360381019061006691906108e9565b6100c5565b005b610075610121565b6040516100829190610bd5565b60405180910390f35b610093610272565b6040516100a09190610cf7565b60405180910390f35b6100c360048036038101906100be9190610912565b6102bd565b005b60016000808282546100d79190610e14565b9250508190555061011e6040518060400160405280601f81526020017f25732066657a206f20576f6f204261636b2070726f2025732c2042616279210081525033836105c9565b50565b60606001805480602002602001604051908101604052809291908181526020016000905b8282101561026957838290600052602060002090600302016040518060600160405290816000820160009054906101000a900473ffffffffffffffffffffffffffffffffffffffff1673ffffffffffffffffffffffffffffffffffffffff1673ffffffffffffffffffffffffffffffffffffffff1681526020016001820180546101ce90610ee8565b80601f01602080910402602001604051908101604052809291908181526020018280546101fa90610ee8565b80156102475780601f1061021c57610100808354040283529160200191610247565b820191906000526020600020905b81548152906001019060200180831161022a57829003601f168201915b5050505050815260200160028201548152505081526020019060010190610145565b50505050905090565b60006102b56040518060400160405280601681526020017f256420576f6f206a6120666f72616d206461646f732100000000000000000000815250600054610668565b600054905090565b60016000808282546102cf9190610e14565b925050819055506103156040518060400160405280600d81526020017f25732066657a206f20576f6f210000000000000000000000000000000000000081525033610704565b600160405180606001604052803373ffffffffffffffffffffffffffffffffffffffff16815260200183815260200142815250908060018154018082558091505060019003906000526020600020906003020160009091909190915060008201518160000160006101000a81548173ffffffffffffffffffffffffffffffffffffffff021916908373ffffffffffffffffffffffffffffffffffffffff16021790555060208201518160010190805190602001906103d49291906107c9565b506040820151816002015550503373ffffffffffffffffffffffffffffffffffffffff167f827fc0b1433d32e3710239670a4c525416496a64d64f2374a5e4ea595c0738c64283604051610429929190610d12565b60405180910390a26000655af3107a400090504781111561047f576040517f08c379a000000000000000000000000000000000000000000000000000000000815260040161047690610cb7565b60405180910390fd5b60003373ffffffffffffffffffffffffffffffffffffffff16826040516104a590610bc0565b60006040518083038185875af1925050503d80600081146104e2576040519150601f19603f3d011682016040523d82523d6000602084013e6104e7565b606091505b505090508061052b576040517f08c379a000000000000000000000000000000000000000000000000000000000815260040161052290610cd7565b60405180910390fd5b505050565b6105c6816040516024016105449190610bf7565b6040516020818303038152906040527f41304fac000000000000000000000000000000000000000000000000000000007bffffffffffffffffffffffffffffffffffffffffffffffffffffffff19166020820180517bffffffffffffffffffffffffffffffffffffffffffffffffffffffff83818316178352505050506107a0565b50565b6106638383836040516024016105e193929190610c49565b6040516020818303038152906040527ffcec75e0000000000000000000000000000000000000000000000000000000007bffffffffffffffffffffffffffffffffffffffffffffffffffffffff19166020820180517bffffffffffffffffffffffffffffffffffffffffffffffffffffffff83818316178352505050506107a0565b505050565b610700828260405160240161067e929190610c87565b6040516020818303038152906040527f9710a9d0000000000000000000000000000000000000000000000000000000007bffffffffffffffffffffffffffffffffffffffffffffffffffffffff19166020820180517bffffffffffffffffffffffffffffffffffffffffffffffffffffffff83818316178352505050506107a0565b5050565b61079c828260405160240161071a929190610c19565b6040516020818303038152906040527f319af333000000000000000000000000000000000000000000000000000000007bffffffffffffffffffffffffffffffffffffffffffffffffffffffff19166020820180517bffffffffffffffffffffffffffffffffffffffffffffffffffffffff83818316178352505050506107a0565b5050565b60008151905060006a636f6e736f6c652e6c6f679050602083016000808483855afa5050505050565b8280546107d590610ee8565b90600052602060002090601f0160209004810192826107f7576000855561083e565b82601f1061081057805160ff191683800117855561083e565b8280016001018555821561083e579182015b8281111561083d578251825591602001919060010190610822565b5b50905061084b919061084f565b5090565b5b80821115610868576000816000905550600101610850565b5090565b600061087f61087a84610d73565b610d42565b90508281526020810184848401111561089757600080fd5b6108a2848285610ea6565b509392505050565b6000813590506108b981610fb8565b92915050565b600082601f8301126108d057600080fd5b81356108e084826020860161086c565b91505092915050565b6000602082840312156108fb57600080fd5b6000610909848285016108aa565b91505092915050565b60006020828403121561092457600080fd5b600082013567ffffffffffffffff81111561093e57600080fd5b61094a848285016108bf565b91505092915050565b600061095f8383610b52565b905092915050565b61097081610e6a565b82525050565b61097f81610e6a565b82525050565b600061099082610db3565b61099a8185610dd6565b9350836020820285016109ac85610da3565b8060005b858110156109e857848403895281516109c98582610953565b94506109d483610dc9565b925060208a019950506001810190506109b0565b50829750879550505050505092915050565b6000610a0582610dbe565b610a0f8185610df2565b9350610a1f818560208601610eb5565b610a2881610fa7565b840191505092915050565b6000610a3e82610dbe565b610a488185610e03565b9350610a58818560208601610eb5565b610a6181610fa7565b840191505092915050565b6000610a79602383610e03565b91507f4f20636f6e747261746f206e616f20706f7373756920302e303030312065746860008301527f65722e00000000000000000000000000000000000000000000000000000000006020830152604082019050919050565b6000610adf600083610de7565b9150600082019050919050565b6000610af9602283610e03565b91507f46616c686f7520656d20736163617220657468657220646f20636f6e7472617460008301527f6f2e0000000000000000000000000000000000000000000000000000000000006020830152604082019050919050565b6000606083016000830151610b6a6000860182610967565b5060208301518482036020860152610b8282826109fa565b9150506040830151610b976040860182610ba2565b508091505092915050565b610bab81610e9c565b82525050565b610bba81610e9c565b82525050565b6000610bcb82610ad2565b9150819050919050565b60006020820190508181036000830152610bef8184610985565b905092915050565b60006020820190508181036000830152610c118184610a33565b905092915050565b60006040820190508181036000830152610c338185610a33565b9050610c426020830184610976565b9392505050565b60006060820190508181036000830152610c638186610a33565b9050610c726020830185610976565b610c7f6040830184610976565b949350505050565b60006040820190508181036000830152610ca18185610a33565b9050610cb06020830184610bb1565b9392505050565b60006020820190508181036000830152610cd081610a6c565b9050919050565b60006020820190508181036000830152610cf081610aec565b9050919050565b6000602082019050610d0c6000830184610bb1565b92915050565b6000604082019050610d276000830185610bb1565b8181036020830152610d398184610a33565b90509392505050565b6000604051905081810181811067ffffffffffffffff82111715610d6957610d68610f78565b5b8060405250919050565b600067ffffffffffffffff821115610d8e57610d8d610f78565b5b601f19601f8301169050602081019050919050565b6000819050602082019050919050565b600081519050919050565b600081519050919050565b6000602082019050919050565b600082825260208201905092915050565b600081905092915050565b600082825260208201905092915050565b600082825260208201905092915050565b6000610e1f82610e9c565b9150610e2a83610e9c565b9250827fffffffffffffffffffffffffffffffffffffffffffffffffffffffffffffffff03821115610e5f57610e5e610f1a565b5b828201905092915050565b6000610e7582610e7c565b9050919050565b600073ffffffffffffffffffffffffffffffffffffffff82169050919050565b6000819050919050565b82818337600083830152505050565b60005b83811015610ed3578082015181840152602081019050610eb8565b83811115610ee2576000848401525b50505050565b60006002820490506001821680610f0057607f821691505b60208210811415610f1457610f13610f49565b5b50919050565b7f4e487b7100000000000000000000000000000000000000000000000000000000600052601160045260246000fd5b7f4e487b7100000000000000000000000000000000000000000000000000000000600052602260045260246000fd5b7f4e487b7100000000000000000000000000000000000000000000000000000000600052604160045260246000fd5b6000601f19601f8301169050919050565b610fc181610e6a565b8114610fcc57600080fd5b5056fea2646970667358221220f42d818e790ccc2a673cd8ddd46de25e82aa1a54305410eaa498d3e607718a2264736f6c63430008000033",
  "linkReferences": {},
  "deployedLinkReferences": {}
}