{
    "_format": "hh-sol-artifact-1",
    "contractName": "WavePortal",
    "sourceName": "contracts/WavePortal.sol",
    "abi": [
        {
            "inputs": [],
            "stateMutability": "nonpayable",
            "type": "constructor"
        },
        {
            "inputs": [],
            "name": "getTotalWoo",
            "outputs": [
                {
                    "internalType": "uint256",
                    "name": "",
                    "type": "uint256"
                }
            ],
            "stateMutability": "view",
            "type": "function"
        },
        {
            "inputs": [],
            "name": "woo",
            "outputs": [],
            "stateMutability": "nonpayable",
            "type": "function"
        },
        {
            "inputs": [
                {
                    "internalType": "address",
                    "name": "target",
                    "type": "address"
                }
            ],
            "name": "wooBack",
            "outputs": [],
            "stateMutability": "nonpayable",
            "type": "function"
        }
    ],
    "bytecode": "0x608060405234801561001057600080fd5b506100596040518060400160405280601c81526020017f536f7520756d20636f6e747261746f20696e74656c6967656e7465210000000081525061005e60201b61018b1760201c565b6101e1565b6100fa81604051602401610072919061015f565b6040516020818303038152906040527f41304fac000000000000000000000000000000000000000000000000000000007bffffffffffffffffffffffffffffffffffffffffffffffffffffffff19166020820180517bffffffffffffffffffffffffffffffffffffffffffffffffffffffff83818316178352505050506100fd60201b60201c565b50565b60008151905060006a636f6e736f6c652e6c6f679050602083016000808483855afa5050505050565b600061013182610181565b61013b818561018c565b935061014b81856020860161019d565b610154816101d0565b840191505092915050565b600060208201905081810360008301526101798184610126565b905092915050565b600081519050919050565b600082825260208201905092915050565b60005b838110156101bb5780820151818401526020810190506101a0565b838111156101ca576000848401525b50505050565b6000601f19601f8301169050919050565b610702806101f06000396000f3fe608060405234801561001057600080fd5b50600436106100415760003560e01c80633aa98494146100465780635c33b06b14610062578063a735adb014610080575b600080fd5b610060600480360381019061005b9190610439565b61008a565b005b61006a6100e6565b6040516100779190610579565b60405180910390f35b610088610131565b005b600160008082825461009c91906105b0565b925050819055506100e36040518060400160405280601f81526020017f25732066657a206f20576f6f204261636b2070726f2025732c204261627921008152503383610224565b50565b60006101296040518060400160405280601681526020017f256420576f6f206a6120666f72616d206461646f7321000000000000000000008152506000546102c3565b600054905090565b600160008082825461014391906105b0565b925050819055506101896040518060400160405280600d81526020017f25732066657a206f20576f6f21000000000000000000000000000000000000008152503361035f565b565b6102218160405160240161019f91906104b9565b6040516020818303038152906040527f41304fac000000000000000000000000000000000000000000000000000000007bffffffffffffffffffffffffffffffffffffffffffffffffffffffff19166020820180517bffffffffffffffffffffffffffffffffffffffffffffffffffffffff83818316178352505050506103fb565b50565b6102be83838360405160240161023c9392919061050b565b6040516020818303038152906040527ffcec75e0000000000000000000000000000000000000000000000000000000007bffffffffffffffffffffffffffffffffffffffffffffffffffffffff19166020820180517bffffffffffffffffffffffffffffffffffffffffffffffffffffffff83818316178352505050506103fb565b505050565b61035b82826040516024016102d9929190610549565b6040516020818303038152906040527f9710a9d0000000000000000000000000000000000000000000000000000000007bffffffffffffffffffffffffffffffffffffffffffffffffffffffff19166020820180517bffffffffffffffffffffffffffffffffffffffffffffffffffffffff83818316178352505050506103fb565b5050565b6103f782826040516024016103759291906104db565b6040516020818303038152906040527f319af333000000000000000000000000000000000000000000000000000000007bffffffffffffffffffffffffffffffffffffffffffffffffffffffff19166020820180517bffffffffffffffffffffffffffffffffffffffffffffffffffffffff83818316178352505050506103fb565b5050565b60008151905060006a636f6e736f6c652e6c6f679050602083016000808483855afa5050505050565b600081359050610433816106b5565b92915050565b60006020828403121561044b57600080fd5b600061045984828501610424565b91505092915050565b61046b81610606565b82525050565b600061047c82610594565b610486818561059f565b9350610496818560208601610642565b61049f816106a4565b840191505092915050565b6104b381610638565b82525050565b600060208201905081810360008301526104d38184610471565b905092915050565b600060408201905081810360008301526104f58185610471565b90506105046020830184610462565b9392505050565b600060608201905081810360008301526105258186610471565b90506105346020830185610462565b6105416040830184610462565b949350505050565b600060408201905081810360008301526105638185610471565b905061057260208301846104aa565b9392505050565b600060208201905061058e60008301846104aa565b92915050565b600081519050919050565b600082825260208201905092915050565b60006105bb82610638565b91506105c683610638565b9250827fffffffffffffffffffffffffffffffffffffffffffffffffffffffffffffffff038211156105fb576105fa610675565b5b828201905092915050565b600061061182610618565b9050919050565b600073ffffffffffffffffffffffffffffffffffffffff82169050919050565b6000819050919050565b60005b83811015610660578082015181840152602081019050610645565b8381111561066f576000848401525b50505050565b7f4e487b7100000000000000000000000000000000000000000000000000000000600052601160045260246000fd5b6000601f19601f8301169050919050565b6106be81610606565b81146106c957600080fd5b5056fea264697066735822122013ca6866ece056f1fcc845f6f1acb5bb5b015ca55f93b10673c941c8c857263364736f6c63430008000033",
    "linkReferences": {},
    "deployedLinkReferences": {}
}