{
  "_format": "hh-sol-artifact-1",
  "contractName": "WavePortal",
  "sourceName": "contracts/WavePortal.sol",
  "abi": [
    {
      "inputs": [],
      "stateMutability": "payable",
      "type": "constructor"
    },
    {
      "anonymous": false,
      "inputs": [
        {
          "indexed": true,
          "internalType": "uint256",
          "name": "id",
          "type": "uint256"
        },
        {
          "indexed": true,
          "internalType": "address",
          "name": "waveSender",
          "type": "address"
        },
        {
          "indexed": false,
          "internalType": "uint256",
          "name": "timestamp",
          "type": "uint256"
        },
        {
          "indexed": false,
          "internalType": "string",
          "name": "message",
          "type": "string"
        },
        {
          "indexed": false,
          "internalType": "uint256",
          "name": "woobacks",
          "type": "uint256"
        }
      ],
      "name": "newWave",
      "type": "event"
    },
    {
      "inputs": [],
      "name": "getAllWoo",
      "outputs": [
        {
          "components": [
            {
              "internalType": "uint256",
              "name": "id",
              "type": "uint256"
            },
            {
              "internalType": "address",
              "name": "waver",
              "type": "address"
            },
            {
              "internalType": "string",
              "name": "message",
              "type": "string"
            },
            {
              "internalType": "uint256",
              "name": "timestamp",
              "type": "uint256"
            }
          ],
          "internalType": "struct WavePortal.Wave[]",
          "name": "",
          "type": "tuple[]"
        }
      ],
      "stateMutability": "view",
      "type": "function"
    },
    {
      "inputs": [
        {
          "internalType": "uint256",
          "name": "_id",
          "type": "uint256"
        }
      ],
      "name": "getAllWooBack",
      "outputs": [
        {
          "internalType": "uint256",
          "name": "",
          "type": "uint256"
        }
      ],
      "stateMutability": "view",
      "type": "function"
    },
    {
      "inputs": [],
      "name": "getTotalWoo",
      "outputs": [
        {
          "internalType": "uint256",
          "name": "",
          "type": "uint256"
        }
      ],
      "stateMutability": "view",
      "type": "function"
    },
    {
      "inputs": [
        {
          "internalType": "address",
          "name": "",
          "type": "address"
        }
      ],
      "name": "lastWoo",
      "outputs": [
        {
          "internalType": "uint256",
          "name": "",
          "type": "uint256"
        }
      ],
      "stateMutability": "view",
      "type": "function"
    },
    {
      "inputs": [
        {
          "internalType": "string",
          "name": "_message",
          "type": "string"
        }
      ],
      "name": "woo",
      "outputs": [],
      "stateMutability": "nonpayable",
      "type": "function"
    },
    {
      "inputs": [
        {
          "internalType": "uint256",
          "name": "_id",
          "type": "uint256"
        }
      ],
      "name": "wooBack",
      "outputs": [],
      "stateMutability": "nonpayable",
      "type": "function"
    },
    {
      "inputs": [
        {
          "internalType": "uint256",
          "name": "",
          "type": "uint256"
        }
      ],
      "name": "woosBack",
      "outputs": [
        {
          "internalType": "uint256",
          "name": "",
          "type": "uint256"
        }
      ],
      "stateMutability": "view",
      "type": "function"
    }
  ],
  "bytecode": "0x60806040526200004f6040518060400160405280601c81526020017f536f7520756d20636f6e747261746f20696e74656c6967656e746521000000008152506200007760201b620008e81760201c565b606444426200005f9190620001c4565b6200006b919062000261565b60028190555062000308565b62000117816040516024016200008e919062000184565b6040516020818303038152906040527f41304fac000000000000000000000000000000000000000000000000000000007bffffffffffffffffffffffffffffffffffffffffffffffffffffffff19166020820180517bffffffffffffffffffffffffffffffffffffffffffffffffffffffff83818316178352505050506200011a60201b60201c565b50565b60008151905060006a636f6e736f6c652e6c6f679050602083016000808483855afa5050505050565b60006200015082620001a8565b6200015c8185620001b3565b93506200016e8185602086016200022b565b6200017981620002f7565b840191505092915050565b60006020820190508181036000830152620001a0818462000143565b905092915050565b600081519050919050565b600082825260208201905092915050565b6000620001d18262000221565b9150620001de8362000221565b9250827fffffffffffffffffffffffffffffffffffffffffffffffffffffffffffffffff0382111562000216576200021562000299565b5b828201905092915050565b6000819050919050565b60005b838110156200024b5780820151818401526020810190506200022e565b838111156200025b576000848401525b50505050565b60006200026e8262000221565b91506200027b8362000221565b9250826200028e576200028d620002c8565b5b828206905092915050565b7f4e487b7100000000000000000000000000000000000000000000000000000000600052601160045260246000fd5b7f4e487b7100000000000000000000000000000000000000000000000000000000600052601260045260246000fd5b6000601f19601f8301169050919050565b6114d080620003186000396000f3fe608060405234801561001057600080fd5b506004361061007d5760003560e01c8063781730421161005b57806378173042146100ee578063e07438001461011e578063ec70b7fc1461013a578063fc427451146101565761007d565b80631afe711b146100825780633ba51f32146100b25780635c33b06b146100d0575b600080fd5b61009c60048036038101906100979190610c17565b610186565b6040516100a99190611109565b60405180910390f35b6100ba61019e565b6040516100c79190610fe5565b60405180910390f35b6100d86102f9565b6040516100e59190611109565b60405180910390f35b61010860048036038101906101039190610c81565b610344565b6040516101159190611109565b60405180910390f35b61013860048036038101906101339190610c81565b61035c565b005b610154600480360381019061014f9190610c40565b6104b7565b005b610170600480360381019061016b9190610c81565b6108cb565b60405161017d9190611109565b60405180910390f35b60046020528060005260406000206000915090505481565b60606003805480602002602001604051908101604052809291908181526020016000905b828210156102f05783829060005260206000209060040201604051806080016040529081600082015481526020016001820160009054906101000a900473ffffffffffffffffffffffffffffffffffffffff1673ffffffffffffffffffffffffffffffffffffffff1673ffffffffffffffffffffffffffffffffffffffff1681526020016002820180546102559061133c565b80601f01602080910402602001604051908101604052809291908181526020018280546102819061133c565b80156102ce5780601f106102a3576101008083540402835291602001916102ce565b820191906000526020600020905b8154815290600101906020018083116102b157829003601f168201915b50505050508152602001600382015481525050815260200190600101906101c2565b50505050905090565b600061033c6040518060400160405280601681526020017f256420576f6f206a6120666f72616d206461646f732100000000000000000000815250600054610981565b600054905090565b60056020528060005260406000206000915090505481565b3373ffffffffffffffffffffffffffffffffffffffff166003600183610382919061128a565b815481106103b9577f4e487b7100000000000000000000000000000000000000000000000000000000600052603260045260246000fd5b906000526020600020906004020160010160009054906101000a900473ffffffffffffffffffffffffffffffffffffffff1673ffffffffffffffffffffffffffffffffffffffff161415610442576040517f08c379a0000000000000000000000000000000000000000000000000000000008152600401610439906110a9565b60405180910390fd5b60018060008282546104549190611234565b9250508190555060015460056000838152602001908152602001600020819055506104b46040518060400160405280601881526020017f25732066657a206f20576f6f204261636b2c204261627921000000000000000081525033610a1d565b50565b42610258600460003373ffffffffffffffffffffffffffffffffffffffff1673ffffffffffffffffffffffffffffffffffffffff168152602001908152602001600020546105059190611234565b10610545576040517f08c379a000000000000000000000000000000000000000000000000000000000815260040161053c906110e9565b60405180910390fd5b42600460003373ffffffffffffffffffffffffffffffffffffffff1673ffffffffffffffffffffffffffffffffffffffff16815260200190815260200160002081905550600160008082825461059b9190611234565b925050819055506105e16040518060400160405280600d81526020017f25732066657a206f20576f6f210000000000000000000000000000000000000081525033610a1d565b6003604051806080016040528060005481526020013373ffffffffffffffffffffffffffffffffffffffff1681526020018381526020014281525090806001815401808255809150506001900390600052602060002090600402016000909190919091506000820151816000015560208201518160010160006101000a81548173ffffffffffffffffffffffffffffffffffffffff021916908373ffffffffffffffffffffffffffffffffffffffff16021790555060408201518160020190805190602001906106b2929190610ae2565b506060820151816003015550503373ffffffffffffffffffffffffffffffffffffffff166000547f26c4d1838431c037609f4aa071960a1a2c7023d26488d79d5b54a9664d9315a5428460015460405161070e93929190611124565b60405180910390a3606460025444426107279190611234565b6107319190611234565b61073b919061136e565b6002819055506107826040518060400160405280601681526020017f232072616e646f6d69636f2067657261646f3a20256400000000000000000000815250600254610981565b6032600254116108c8576107cb6040518060400160405280600a81526020017f25732067616e686f75210000000000000000000000000000000000000000000081525033610a1d565b6000655af3107a4000905047811115610819576040517f08c379a000000000000000000000000000000000000000000000000000000000815260040161081090611089565b60405180910390fd5b60003373ffffffffffffffffffffffffffffffffffffffff168260405161083f90610fd0565b60006040518083038185875af1925050503d806000811461087c576040519150601f19603f3d011682016040523d82523d6000602084013e610881565b606091505b50509050806108c5576040517f08c379a00000000000000000000000000000000000000000000000000000000081526004016108bc906110c9565b60405180910390fd5b50505b50565b600060056000838152602001908152602001600020549050919050565b61097e816040516024016108fc9190611007565b6040516020818303038152906040527f41304fac000000000000000000000000000000000000000000000000000000007bffffffffffffffffffffffffffffffffffffffffffffffffffffffff19166020820180517bffffffffffffffffffffffffffffffffffffffffffffffffffffffff8381831617835250505050610ab9565b50565b610a198282604051602401610997929190611059565b6040516020818303038152906040527f9710a9d0000000000000000000000000000000000000000000000000000000007bffffffffffffffffffffffffffffffffffffffffffffffffffffffff19166020820180517bffffffffffffffffffffffffffffffffffffffffffffffffffffffff8381831617835250505050610ab9565b5050565b610ab58282604051602401610a33929190611029565b6040516020818303038152906040527f319af333000000000000000000000000000000000000000000000000000000007bffffffffffffffffffffffffffffffffffffffffffffffffffffffff19166020820180517bffffffffffffffffffffffffffffffffffffffffffffffffffffffff8381831617835250505050610ab9565b5050565b60008151905060006a636f6e736f6c652e6c6f679050602083016000808483855afa5050505050565b828054610aee9061133c565b90600052602060002090601f016020900481019282610b105760008555610b57565b82601f10610b2957805160ff1916838001178555610b57565b82800160010185558215610b57579182015b82811115610b56578251825591602001919060010190610b3b565b5b509050610b649190610b68565b5090565b5b80821115610b81576000816000905550600101610b69565b5090565b6000610b98610b9384611193565b611162565b905082815260208101848484011115610bb057600080fd5b610bbb8482856112fa565b509392505050565b600081359050610bd28161146c565b92915050565b600082601f830112610be957600080fd5b8135610bf9848260208601610b85565b91505092915050565b600081359050610c1181611483565b92915050565b600060208284031215610c2957600080fd5b6000610c3784828501610bc3565b91505092915050565b600060208284031215610c5257600080fd5b600082013567ffffffffffffffff811115610c6c57600080fd5b610c7884828501610bd8565b91505092915050565b600060208284031215610c9357600080fd5b6000610ca184828501610c02565b91505092915050565b6000610cb68383610f4f565b905092915050565b610cc7816112be565b82525050565b610cd6816112be565b82525050565b6000610ce7826111d3565b610cf181856111f6565b935083602082028501610d03856111c3565b8060005b85811015610d3f5784840389528151610d208582610caa565b9450610d2b836111e9565b925060208a01995050600181019050610d07565b50829750879550505050505092915050565b6000610d5c826111de565b610d668185611212565b9350610d76818560208601611309565b610d7f8161145b565b840191505092915050565b6000610d95826111de565b610d9f8185611223565b9350610daf818560208601611309565b610db88161145b565b840191505092915050565b6000610dd0602383611223565b91507f4f20636f6e747261746f206e616f20706f7373756920302e303030312065746860008301527f65722e00000000000000000000000000000000000000000000000000000000006020830152604082019050919050565b6000610e36603083611223565b91507f566f6365206e616f20706f6465206d616e646172206f20576f6f204261636b2060008301527f7061726120766f6365206d65736d6f21000000000000000000000000000000006020830152604082019050919050565b6000610e9c600083611207565b9150600082019050919050565b6000610eb6602283611223565b91507f46616c686f7520656d20736163617220657468657220646f20636f6e7472617460008301527f6f2e0000000000000000000000000000000000000000000000000000000000006020830152604082019050919050565b6000610f1c601283611223565b91507f457370657265203135206d696e75746f732100000000000000000000000000006000830152602082019050919050565b6000608083016000830151610f676000860182610fb2565b506020830151610f7a6020860182610cbe565b5060408301518482036040860152610f928282610d51565b9150506060830151610fa76060860182610fb2565b508091505092915050565b610fbb816112f0565b82525050565b610fca816112f0565b82525050565b6000610fdb82610e8f565b9150819050919050565b60006020820190508181036000830152610fff8184610cdc565b905092915050565b600060208201905081810360008301526110218184610d8a565b905092915050565b600060408201905081810360008301526110438185610d8a565b90506110526020830184610ccd565b9392505050565b600060408201905081810360008301526110738185610d8a565b90506110826020830184610fc1565b9392505050565b600060208201905081810360008301526110a281610dc3565b9050919050565b600060208201905081810360008301526110c281610e29565b9050919050565b600060208201905081810360008301526110e281610ea9565b9050919050565b6000602082019050818103600083015261110281610f0f565b9050919050565b600060208201905061111e6000830184610fc1565b92915050565b60006060820190506111396000830186610fc1565b818103602083015261114b8185610d8a565b905061115a6040830184610fc1565b949350505050565b6000604051905081810181811067ffffffffffffffff821117156111895761118861142c565b5b8060405250919050565b600067ffffffffffffffff8211156111ae576111ad61142c565b5b601f19601f8301169050602081019050919050565b6000819050602082019050919050565b600081519050919050565b600081519050919050565b6000602082019050919050565b600082825260208201905092915050565b600081905092915050565b600082825260208201905092915050565b600082825260208201905092915050565b600061123f826112f0565b915061124a836112f0565b9250827fffffffffffffffffffffffffffffffffffffffffffffffffffffffffffffffff0382111561127f5761127e61139f565b5b828201905092915050565b6000611295826112f0565b91506112a0836112f0565b9250828210156112b3576112b261139f565b5b828203905092915050565b60006112c9826112d0565b9050919050565b600073ffffffffffffffffffffffffffffffffffffffff82169050919050565b6000819050919050565b82818337600083830152505050565b60005b8381101561132757808201518184015260208101905061130c565b83811115611336576000848401525b50505050565b6000600282049050600182168061135457607f821691505b60208210811415611368576113676113fd565b5b50919050565b6000611379826112f0565b9150611384836112f0565b925082611394576113936113ce565b5b828206905092915050565b7f4e487b7100000000000000000000000000000000000000000000000000000000600052601160045260246000fd5b7f4e487b7100000000000000000000000000000000000000000000000000000000600052601260045260246000fd5b7f4e487b7100000000000000000000000000000000000000000000000000000000600052602260045260246000fd5b7f4e487b7100000000000000000000000000000000000000000000000000000000600052604160045260246000fd5b6000601f19601f8301169050919050565b611475816112be565b811461148057600080fd5b50565b61148c816112f0565b811461149757600080fd5b5056fea264697066735822122021f534662681e59c60e65b04ac2b45d58842182c5207bacda5408466ff4a0c7864736f6c63430008000033",
  "linkReferences": {},
  "deployedLinkReferences": {}
}